{
  "_format": "hh-sol-artifact-1",
  "contractName": "MyContract",
  "sourceName": "contracts/MyContract.sol",
  "abi": [
    {
      "inputs": [],
      "stateMutability": "nonpayable",
      "type": "constructor"
    },
    {
      "anonymous": false,
      "inputs": [
        {
          "indexed": true,
          "internalType": "string",
          "name": "matchId",
          "type": "string"
        },
        {
          "indexed": false,
          "internalType": "uint256",
          "name": "matchTime",
          "type": "uint256"
        },
        {
          "indexed": false,
          "internalType": "string",
          "name": "userId1",
          "type": "string"
        },
        {
          "indexed": false,
          "internalType": "uint256",
          "name": "score1",
          "type": "uint256"
        },
        {
          "indexed": false,
          "internalType": "string",
          "name": "userId2",
          "type": "string"
        },
        {
          "indexed": false,
          "internalType": "uint256",
          "name": "score2",
          "type": "uint256"
        }
      ],
      "name": "MatchResultStored",
      "type": "event"
    },
    {
      "inputs": [
        {
          "internalType": "string",
          "name": "_matchId",
          "type": "string"
        }
      ],
      "name": "getMatchResult",
      "outputs": [
        {
          "internalType": "string",
          "name": "matchId",
          "type": "string"
        },
        {
          "internalType": "uint256",
          "name": "matchTime",
          "type": "uint256"
        },
        {
          "internalType": "string",
          "name": "userId1",
          "type": "string"
        },
        {
          "internalType": "uint256",
          "name": "score1",
          "type": "uint256"
        },
        {
          "internalType": "string",
          "name": "userId2",
          "type": "string"
        },
        {
          "internalType": "uint256",
          "name": "score2",
          "type": "uint256"
        }
      ],
      "stateMutability": "view",
      "type": "function"
    },
    {
      "inputs": [
        {
          "internalType": "string",
          "name": "",
          "type": "string"
        }
      ],
      "name": "matchExists",
      "outputs": [
        {
          "internalType": "bool",
          "name": "",
          "type": "bool"
        }
      ],
      "stateMutability": "view",
      "type": "function"
    },
    {
      "inputs": [
        {
          "internalType": "string",
          "name": "",
          "type": "string"
        }
      ],
      "name": "matchResults",
      "outputs": [
        {
          "internalType": "string",
          "name": "matchId",
          "type": "string"
        },
        {
          "internalType": "uint256",
          "name": "matchTime",
          "type": "uint256"
        },
        {
          "components": [
            {
              "internalType": "string",
              "name": "userId",
              "type": "string"
            },
            {
              "internalType": "uint256",
              "name": "score",
              "type": "uint256"
            }
          ],
          "internalType": "struct MyContract.Player",
          "name": "player1",
          "type": "tuple"
        },
        {
          "components": [
            {
              "internalType": "string",
              "name": "userId",
              "type": "string"
            },
            {
              "internalType": "uint256",
              "name": "score",
              "type": "uint256"
            }
          ],
          "internalType": "struct MyContract.Player",
          "name": "player2",
          "type": "tuple"
        }
      ],
      "stateMutability": "view",
      "type": "function"
    },
    {
      "inputs": [
        {
          "internalType": "string",
          "name": "_matchId",
          "type": "string"
        },
        {
          "internalType": "uint256",
          "name": "_matchTime",
          "type": "uint256"
        },
        {
          "internalType": "string",
          "name": "_userId1",
          "type": "string"
        },
        {
          "internalType": "uint256",
          "name": "_score1",
          "type": "uint256"
        },
        {
          "internalType": "string",
          "name": "_userId2",
          "type": "string"
        },
        {
          "internalType": "uint256",
          "name": "_score2",
          "type": "uint256"
        }
      ],
      "name": "storeMatchResult",
      "outputs": [],
      "stateMutability": "nonpayable",
      "type": "function"
    },
    {
      "inputs": [],
      "name": "totalMatches",
      "outputs": [
        {
          "internalType": "uint256",
          "name": "",
          "type": "uint256"
        }
      ],
      "stateMutability": "view",
      "type": "function"
    }
  ],
  "bytecode": "0x608060405234801561001057600080fd5b506000600281905550611490806100286000396000f3fe608060405234801561001057600080fd5b50600436106100575760003560e01c80632a5b14511461005c5780635d7eefcc1461007a57806374eaf84714610096578063dc46b73d146100c6578063f8bec5dc146100f9575b600080fd5b61006461012e565b604051610071919061094f565b60405180910390f35b610094600480360381019061008f9190610af0565b610134565b005b6100b060048036038101906100ab9190610bd1565b610403565b6040516100bd9190610c35565b60405180910390f35b6100e060048036038101906100db9190610bd1565b610439565b6040516100f09493929190610d65565b60405180910390f35b610113600480360381019061010e9190610bd1565b610653565b60405161012596959493929190610dbf565b60405180910390f35b60025481565b6001866040516101449190610e71565b908152602001604051809103902060009054906101000a900460ff16156101a0576040517f08c379a000000000000000000000000000000000000000000000000000000000815260040161019790610ed4565b60405180910390fd5b60008651116101e4576040517f08c379a00000000000000000000000000000000000000000000000000000000081526004016101db90610f40565b60405180910390fd5b6000845111610228576040517f08c379a000000000000000000000000000000000000000000000000000000000815260040161021f90610fac565b60405180910390fd5b600082511161026c576040517f08c379a000000000000000000000000000000000000000000000000000000000815260040161026390611018565b60405180910390fd5b60006040518060400160405280868152602001858152509050600060405180604001604052808581526020018481525090506040518060800160405280898152602001888152602001838152602001828152506000896040516102cf9190610e71565b908152602001604051809103902060008201518160000190816102f29190611244565b5060208201518160010155604082015181600201600082015181600001908161031b9190611244565b5060208201518160010155505060608201518160040160008201518160000190816103469190611244565b50602082015181600101555050905050600180896040516103679190610e71565b908152602001604051809103902060006101000a81548160ff0219169083151502179055506002600081548092919061039f90611345565b9190505550876040516103b29190610e71565b60405180910390207f1c4fceb0b7456be7424a7309016717b08b0d8ba3b3a453f38c367ee409ecd8bf88888888886040516103f195949392919061138d565b60405180910390a25050505050505050565b6001818051602081018201805184825260208301602085012081835280955050505050506000915054906101000a900460ff1681565b60008180516020810182018051848252602083016020850120818352809550505050505060009150905080600001805461047290611067565b80601f016020809104026020016040519081016040528092919081815260200182805461049e90611067565b80156104eb5780601f106104c0576101008083540402835291602001916104eb565b820191906000526020600020905b8154815290600101906020018083116104ce57829003601f168201915b5050505050908060010154908060020160405180604001604052908160008201805461051690611067565b80601f016020809104026020016040519081016040528092919081815260200182805461054290611067565b801561058f5780601f106105645761010080835404028352916020019161058f565b820191906000526020600020905b81548152906001019060200180831161057257829003601f168201915b5050505050815260200160018201548152505090806004016040518060400160405290816000820180546105c290611067565b80601f01602080910402602001604051908101604052809291908181526020018280546105ee90611067565b801561063b5780601f106106105761010080835404028352916020019161063b565b820191906000526020600020905b81548152906001019060200180831161061e57829003601f168201915b50505050508152602001600182015481525050905084565b60606000606060006060600060018760405161066f9190610e71565b908152602001604051809103902060009054906101000a900460ff166106ca576040517f08c379a00000000000000000000000000000000000000000000000000000000081526004016106c19061143a565b60405180910390fd5b600080886040516106db9190610e71565b908152602001604051809103902060405180608001604052908160008201805461070490611067565b80601f016020809104026020016040519081016040528092919081815260200182805461073090611067565b801561077d5780601f106107525761010080835404028352916020019161077d565b820191906000526020600020905b81548152906001019060200180831161076057829003601f168201915b5050505050815260200160018201548152602001600282016040518060400160405290816000820180546107b090611067565b80601f01602080910402602001604051908101604052809291908181526020018280546107dc90611067565b80156108295780601f106107fe57610100808354040283529160200191610829565b820191906000526020600020905b81548152906001019060200180831161080c57829003601f168201915b5050505050815260200160018201548152505081526020016004820160405180604001604052908160008201805461086090611067565b80601f016020809104026020016040519081016040528092919081815260200182805461088c90611067565b80156108d95780601f106108ae576101008083540402835291602001916108d9565b820191906000526020600020905b8154815290600101906020018083116108bc57829003601f168201915b50505050508152602001600182015481525050815250509050806000015181602001518260400151600001518360400151602001518460600151600001518560600151602001519650965096509650965096505091939550919395565b6000819050919050565b61094981610936565b82525050565b60006020820190506109646000830184610940565b92915050565b6000604051905090565b600080fd5b600080fd5b600080fd5b600080fd5b6000601f19601f8301169050919050565b7f4e487b7100000000000000000000000000000000000000000000000000000000600052604160045260246000fd5b6109d182610988565b810181811067ffffffffffffffff821117156109f0576109ef610999565b5b80604052505050565b6000610a0361096a565b9050610a0f82826109c8565b919050565b600067ffffffffffffffff821115610a2f57610a2e610999565b5b610a3882610988565b9050602081019050919050565b82818337600083830152505050565b6000610a67610a6284610a14565b6109f9565b905082815260208101848484011115610a8357610a82610983565b5b610a8e848285610a45565b509392505050565b600082601f830112610aab57610aaa61097e565b5b8135610abb848260208601610a54565b91505092915050565b610acd81610936565b8114610ad857600080fd5b50565b600081359050610aea81610ac4565b92915050565b60008060008060008060c08789031215610b0d57610b0c610974565b5b600087013567ffffffffffffffff811115610b2b57610b2a610979565b5b610b3789828a01610a96565b9650506020610b4889828a01610adb565b955050604087013567ffffffffffffffff811115610b6957610b68610979565b5b610b7589828a01610a96565b9450506060610b8689828a01610adb565b935050608087013567ffffffffffffffff811115610ba757610ba6610979565b5b610bb389828a01610a96565b92505060a0610bc489828a01610adb565b9150509295509295509295565b600060208284031215610be757610be6610974565b5b600082013567ffffffffffffffff811115610c0557610c04610979565b5b610c1184828501610a96565b91505092915050565b60008115159050919050565b610c2f81610c1a565b82525050565b6000602082019050610c4a6000830184610c26565b92915050565b600081519050919050565b600082825260208201905092915050565b60005b83811015610c8a578082015181840152602081019050610c6f565b60008484015250505050565b6000610ca182610c50565b610cab8185610c5b565b9350610cbb818560208601610c6c565b610cc481610988565b840191505092915050565b600082825260208201905092915050565b6000610ceb82610c50565b610cf58185610ccf565b9350610d05818560208601610c6c565b610d0e81610988565b840191505092915050565b610d2281610936565b82525050565b60006040830160008301518482036000860152610d458282610ce0565b9150506020830151610d5a6020860182610d19565b508091505092915050565b60006080820190508181036000830152610d7f8187610c96565b9050610d8e6020830186610940565b8181036040830152610da08185610d28565b90508181036060830152610db48184610d28565b905095945050505050565b600060c0820190508181036000830152610dd98189610c96565b9050610de86020830188610940565b8181036040830152610dfa8187610c96565b9050610e096060830186610940565b8181036080830152610e1b8185610c96565b9050610e2a60a0830184610940565b979650505050505050565b600081905092915050565b6000610e4b82610c50565b610e558185610e35565b9350610e65818560208601610c6c565b80840191505092915050565b6000610e7d8284610e40565b915081905092915050565b7f4d6174636820494420616c726561647920657869737473000000000000000000600082015250565b6000610ebe601783610c5b565b9150610ec982610e88565b602082019050919050565b60006020820190508181036000830152610eed81610eb1565b9050919050565b7f4d617463682049442063616e6e6f7420626520656d7074790000000000000000600082015250565b6000610f2a601883610c5b565b9150610f3582610ef4565b602082019050919050565b60006020820190508181036000830152610f5981610f1d565b9050919050565b7f5573657220494420312063616e6e6f7420626520656d70747900000000000000600082015250565b6000610f96601983610c5b565b9150610fa182610f60565b602082019050919050565b60006020820190508181036000830152610fc581610f89565b9050919050565b7f5573657220494420322063616e6e6f7420626520656d70747900000000000000600082015250565b6000611002601983610c5b565b915061100d82610fcc565b602082019050919050565b6000602082019050818103600083015261103181610ff5565b9050919050565b7f4e487b7100000000000000000000000000000000000000000000000000000000600052602260045260246000fd5b6000600282049050600182168061107f57607f821691505b60208210810361109257611091611038565b5b50919050565b60008190508160005260206000209050919050565b60006020601f8301049050919050565b600082821b905092915050565b6000600883026110fa7fffffffffffffffffffffffffffffffffffffffffffffffffffffffffffffffff826110bd565b61110486836110bd565b95508019841693508086168417925050509392505050565b6000819050919050565b600061114161113c61113784610936565b61111c565b610936565b9050919050565b6000819050919050565b61115b83611126565b61116f61116782611148565b8484546110ca565b825550505050565b600090565b611184611177565b61118f818484611152565b505050565b5b818110156111b3576111a860008261117c565b600181019050611195565b5050565b601f8211156111f8576111c981611098565b6111d2846110ad565b810160208510156111e1578190505b6111f56111ed856110ad565b830182611194565b50505b505050565b600082821c905092915050565b600061121b600019846008026111fd565b1980831691505092915050565b6000611234838361120a565b9150826002028217905092915050565b61124d82610c50565b67ffffffffffffffff81111561126657611265610999565b5b6112708254611067565b61127b8282856111b7565b600060209050601f8311600181146112ae576000841561129c578287015190505b6112a68582611228565b86555061130e565b601f1984166112bc86611098565b60005b828110156112e4578489015182556001820191506020850194506020810190506112bf565b8683101561130157848901516112fd601f89168261120a565b8355505b6001600288020188555050505b505050505050565b7f4e487b7100000000000000000000000000000000000000000000000000000000600052601160045260246000fd5b600061135082610936565b91507fffffffffffffffffffffffffffffffffffffffffffffffffffffffffffffffff820361138257611381611316565b5b600182019050919050565b600060a0820190506113a26000830188610940565b81810360208301526113b48187610c96565b90506113c36040830186610940565b81810360608301526113d58185610c96565b90506113e46080830184610940565b9695505050505050565b7f4d6174636820646f6573206e6f74206578697374000000000000000000000000600082015250565b6000611424601483610c5b565b915061142f826113ee565b602082019050919050565b6000602082019050818103600083015261145381611417565b905091905056fea26469706673582212207984c6d85be07aa83ac3995750637840ecc618196d3fe726d5f65c690cb72ca664736f6c63430008140033",
  "linkReferences": {},
  "deployedLinkReferences": {}
}