{
  "_format": "hh-sol-artifact-1",
  "contractName": "MyContract",
  "sourceName": "contracts/MyContract.sol",
  "abi": [
    {
      "inputs": [],
      "stateMutability": "nonpayable",
      "type": "constructor"
    },
    {
      "anonymous": false,
      "inputs": [
        {
          "indexed": true,
          "internalType": "string",
          "name": "matchId",
          "type": "string"
        },
        {
          "indexed": false,
          "internalType": "string",
          "name": "matchTime",
          "type": "string"
        },
        {
          "indexed": false,
          "internalType": "string",
          "name": "userId1",
          "type": "string"
        },
        {
          "indexed": false,
          "internalType": "string",
          "name": "displayName1",
          "type": "string"
        },
        {
          "indexed": false,
          "internalType": "string",
          "name": "score1",
          "type": "string"
        },
        {
          "indexed": false,
          "internalType": "string",
          "name": "userId2",
          "type": "string"
        },
        {
          "indexed": false,
          "internalType": "string",
          "name": "displayName2",
          "type": "string"
        },
        {
          "indexed": false,
          "internalType": "string",
          "name": "score2",
          "type": "string"
        }
      ],
      "name": "MatchResultStored",
      "type": "event"
    },
    {
      "inputs": [],
      "name": "getAllMatchIds",
      "outputs": [
        {
          "internalType": "string[]",
          "name": "",
          "type": "string[]"
        }
      ],
      "stateMutability": "view",
      "type": "function"
    },
    {
      "inputs": [
        {
          "internalType": "uint256",
          "name": "_index",
          "type": "uint256"
        }
      ],
      "name": "getMatchIdByIndex",
      "outputs": [
        {
          "internalType": "string",
          "name": "",
          "type": "string"
        }
      ],
      "stateMutability": "view",
      "type": "function"
    },
    {
      "inputs": [
        {
          "internalType": "string",
          "name": "_matchId",
          "type": "string"
        }
      ],
      "name": "getMatchResult",
      "outputs": [
        {
          "internalType": "string",
          "name": "matchId",
          "type": "string"
        },
        {
          "internalType": "string",
          "name": "matchTime",
          "type": "string"
        },
        {
          "internalType": "string",
          "name": "userId1",
          "type": "string"
        },
        {
          "internalType": "string",
          "name": "displayName1",
          "type": "string"
        },
        {
          "internalType": "string",
          "name": "score1",
          "type": "string"
        },
        {
          "internalType": "string",
          "name": "userId2",
          "type": "string"
        },
        {
          "internalType": "string",
          "name": "displayName2",
          "type": "string"
        },
        {
          "internalType": "string",
          "name": "score2",
          "type": "string"
        }
      ],
      "stateMutability": "view",
      "type": "function"
    },
    {
      "inputs": [
        {
          "internalType": "string",
          "name": "_matchId",
          "type": "string"
        }
      ],
      "name": "isMatchIdExists",
      "outputs": [
        {
          "internalType": "bool",
          "name": "",
          "type": "bool"
        }
      ],
      "stateMutability": "view",
      "type": "function"
    },
    {
      "inputs": [
        {
          "internalType": "string",
          "name": "",
          "type": "string"
        }
      ],
      "name": "matchExists",
      "outputs": [
        {
          "internalType": "bool",
          "name": "",
          "type": "bool"
        }
      ],
      "stateMutability": "view",
      "type": "function"
    },
    {
      "inputs": [
        {
          "internalType": "uint256",
          "name": "",
          "type": "uint256"
        }
      ],
      "name": "matchIdList",
      "outputs": [
        {
          "internalType": "string",
          "name": "",
          "type": "string"
        }
      ],
      "stateMutability": "view",
      "type": "function"
    },
    {
      "inputs": [
        {
          "internalType": "string",
          "name": "",
          "type": "string"
        }
      ],
      "name": "matchResults",
      "outputs": [
        {
          "internalType": "string",
          "name": "matchId",
          "type": "string"
        },
        {
          "internalType": "string",
          "name": "matchTime",
          "type": "string"
        },
        {
          "components": [
            {
              "internalType": "string",
              "name": "userId",
              "type": "string"
            },
            {
              "internalType": "string",
              "name": "displayName",
              "type": "string"
            },
            {
              "internalType": "string",
              "name": "score",
              "type": "string"
            }
          ],
          "internalType": "struct MyContract.Player",
          "name": "player1",
          "type": "tuple"
        },
        {
          "components": [
            {
              "internalType": "string",
              "name": "userId",
              "type": "string"
            },
            {
              "internalType": "string",
              "name": "displayName",
              "type": "string"
            },
            {
              "internalType": "string",
              "name": "score",
              "type": "string"
            }
          ],
          "internalType": "struct MyContract.Player",
          "name": "player2",
          "type": "tuple"
        }
      ],
      "stateMutability": "view",
      "type": "function"
    },
    {
      "inputs": [
        {
          "internalType": "string",
          "name": "_matchId",
          "type": "string"
        },
        {
          "internalType": "string",
          "name": "_matchTime",
          "type": "string"
        },
        {
          "internalType": "string",
          "name": "_userId1",
          "type": "string"
        },
        {
          "internalType": "string",
          "name": "_displayName1",
          "type": "string"
        },
        {
          "internalType": "string",
          "name": "_score1",
          "type": "string"
        },
        {
          "internalType": "string",
          "name": "_userId2",
          "type": "string"
        },
        {
          "internalType": "string",
          "name": "_displayName2",
          "type": "string"
        },
        {
          "internalType": "string",
          "name": "_score2",
          "type": "string"
        }
      ],
      "name": "storeMatchResult",
      "outputs": [],
      "stateMutability": "nonpayable",
      "type": "function"
    },
    {
      "inputs": [],
      "name": "totalMatches",
      "outputs": [
        {
          "internalType": "uint256",
          "name": "",
          "type": "uint256"
        }
      ],
      "stateMutability": "view",
      "type": "function"
    }
  ],
  "bytecode": "0x608060405234801561001057600080fd5b506000600281905550612341806100286000396000f3fe608060405234801561001057600080fd5b50600436106100935760003560e01c806374eaf8471161006657806374eaf84714610120578063da74faac14610150578063dc46b73d14610180578063f8bec5dc146101b3578063fa9b0817146101ea57610093565b80632a0f116c146100985780632a5b1451146100b45780634ad7b6fe146100d2578063709c4134146100f0575b600080fd5b6100b260048036038101906100ad91906114dc565b61021a565b005b6100bc610608565b6040516100c9919061168b565b60405180910390f35b6100da61060e565b6040516100e791906117e7565b60405180910390f35b61010a60048036038101906101059190611809565b6106e7565b604051610117919061186d565b60405180910390f35b61013a60048036038101906101359190611809565b61071c565b604051610147919061186d565b60405180910390f35b61016a600480360381019061016591906118b4565b610752565b604051610177919061192b565b60405180910390f35b61019a60048036038101906101959190611809565b610849565b6040516101aa94939291906119ab565b60405180910390f35b6101cd60048036038101906101c89190611809565b610d1f565b6040516101e1989796959493929190611a0c565b60405180910390f35b61020460048036038101906101ff91906118b4565b6112d6565b604051610211919061192b565b60405180910390f35b60018860405161022a9190611afe565b908152602001604051809103902060009054906101000a900460ff1615610286576040517f08c379a000000000000000000000000000000000000000000000000000000000815260040161027d90611b87565b60405180910390fd5b60008851116102ca576040517f08c379a00000000000000000000000000000000000000000000000000000000081526004016102c190611c19565b60405180910390fd5b600086511161030e576040517f08c379a000000000000000000000000000000000000000000000000000000000815260040161030590611c85565b60405180910390fd5b6000835111610352576040517f08c379a000000000000000000000000000000000000000000000000000000000815260040161034990611cf1565b60405180910390fd5b6000855111610396576040517f08c379a000000000000000000000000000000000000000000000000000000000815260040161038d90611d5d565b60405180910390fd5b60008251116103da576040517f08c379a00000000000000000000000000000000000000000000000000000000081526004016103d190611dc9565b60405180910390fd5b600060405180606001604052808881526020018781526020018681525090506000604051806060016040528086815260200185815260200184815250905060405180608001604052808b81526020018a81526020018381526020018281525060008b6040516104499190611afe565b9081526020016040518091039020600082015181600001908161046c9190611ff5565b5060208201518160010190816104829190611ff5565b5060408201518160020160008201518160000190816104a19190611ff5565b5060208201518160010190816104b79190611ff5565b5060408201518160020190816104cd9190611ff5565b50505060608201518160050160008201518160000190816104ee9190611ff5565b5060208201518160010190816105049190611ff5565b50604082015181600201908161051a9190611ff5565b5050509050506001808b6040516105319190611afe565b908152602001604051809103902060006101000a81548160ff02191690831515021790555060038a90806001815401808255809150506001900390600052602060002001600090919091909150908161058a9190611ff5565b506002600081548092919061059e906120f6565b9190505550896040516105b19190611afe565b60405180910390207f5d2fceae945df8db929c0fc708039c9217bd986ae74123d3c99d2c94f58351448a8a8a8a8a8a8a6040516105f4979695949392919061213e565b60405180910390a250505050505050505050565b60025481565b60606003805480602002602001604051908101604052809291908181526020016000905b828210156106de57838290600052602060002001805461065190611e18565b80601f016020809104026020016040519081016040528092919081815260200182805461067d90611e18565b80156106ca5780601f1061069f576101008083540402835291602001916106ca565b820191906000526020600020905b8154815290600101906020018083116106ad57829003601f168201915b505050505081526020019060010190610632565b50505050905090565b60006001826040516106f99190611afe565b908152602001604051809103902060009054906101000a900460ff169050919050565b6001818051602081018201805184825260208301602085012081835280955050505050506000915054906101000a900460ff1681565b6060600380549050821061079b576040517f08c379a00000000000000000000000000000000000000000000000000000000081526004016107929061222a565b60405180910390fd5b600382815481106107af576107ae61224a565b5b9060005260206000200180546107c490611e18565b80601f01602080910402602001604051908101604052809291908181526020018280546107f090611e18565b801561083d5780601f106108125761010080835404028352916020019161083d565b820191906000526020600020905b81548152906001019060200180831161082057829003601f168201915b50505050509050919050565b60008180516020810182018051848252602083016020850120818352809550505050505060009150905080600001805461088290611e18565b80601f01602080910402602001604051908101604052809291908181526020018280546108ae90611e18565b80156108fb5780601f106108d0576101008083540402835291602001916108fb565b820191906000526020600020905b8154815290600101906020018083116108de57829003601f168201915b50505050509080600101805461091090611e18565b80601f016020809104026020016040519081016040528092919081815260200182805461093c90611e18565b80156109895780601f1061095e57610100808354040283529160200191610989565b820191906000526020600020905b81548152906001019060200180831161096c57829003601f168201915b505050505090806002016040518060600160405290816000820180546109ae90611e18565b80601f01602080910402602001604051908101604052809291908181526020018280546109da90611e18565b8015610a275780601f106109fc57610100808354040283529160200191610a27565b820191906000526020600020905b815481529060010190602001808311610a0a57829003601f168201915b50505050508152602001600182018054610a4090611e18565b80601f0160208091040260200160405190810160405280929190818152602001828054610a6c90611e18565b8015610ab95780601f10610a8e57610100808354040283529160200191610ab9565b820191906000526020600020905b815481529060010190602001808311610a9c57829003601f168201915b50505050508152602001600282018054610ad290611e18565b80601f0160208091040260200160405190810160405280929190818152602001828054610afe90611e18565b8015610b4b5780601f10610b2057610100808354040283529160200191610b4b565b820191906000526020600020905b815481529060010190602001808311610b2e57829003601f168201915b5050505050815250509080600501604051806060016040529081600082018054610b7490611e18565b80601f0160208091040260200160405190810160405280929190818152602001828054610ba090611e18565b8015610bed5780601f10610bc257610100808354040283529160200191610bed565b820191906000526020600020905b815481529060010190602001808311610bd057829003601f168201915b50505050508152602001600182018054610c0690611e18565b80601f0160208091040260200160405190810160405280929190818152602001828054610c3290611e18565b8015610c7f5780601f10610c5457610100808354040283529160200191610c7f565b820191906000526020600020905b815481529060010190602001808311610c6257829003601f168201915b50505050508152602001600282018054610c9890611e18565b80601f0160208091040260200160405190810160405280929190818152602001828054610cc490611e18565b8015610d115780601f10610ce657610100808354040283529160200191610d11565b820191906000526020600020905b815481529060010190602001808311610cf457829003601f168201915b505050505081525050905084565b606080606080606080606080600189604051610d3b9190611afe565b908152602001604051809103902060009054906101000a900460ff16610d96576040517f08c379a0000000000000000000000000000000000000000000000000000000008152600401610d8d906122eb565b60405180910390fd5b6000808a604051610da79190611afe565b9081526020016040518091039020604051806080016040529081600082018054610dd090611e18565b80601f0160208091040260200160405190810160405280929190818152602001828054610dfc90611e18565b8015610e495780601f10610e1e57610100808354040283529160200191610e49565b820191906000526020600020905b815481529060010190602001808311610e2c57829003601f168201915b50505050508152602001600182018054610e6290611e18565b80601f0160208091040260200160405190810160405280929190818152602001828054610e8e90611e18565b8015610edb5780601f10610eb057610100808354040283529160200191610edb565b820191906000526020600020905b815481529060010190602001808311610ebe57829003601f168201915b5050505050815260200160028201604051806060016040529081600082018054610f0490611e18565b80601f0160208091040260200160405190810160405280929190818152602001828054610f3090611e18565b8015610f7d5780601f10610f5257610100808354040283529160200191610f7d565b820191906000526020600020905b815481529060010190602001808311610f6057829003601f168201915b50505050508152602001600182018054610f9690611e18565b80601f0160208091040260200160405190810160405280929190818152602001828054610fc290611e18565b801561100f5780601f10610fe45761010080835404028352916020019161100f565b820191906000526020600020905b815481529060010190602001808311610ff257829003601f168201915b5050505050815260200160028201805461102890611e18565b80601f016020809104026020016040519081016040528092919081815260200182805461105490611e18565b80156110a15780601f10611076576101008083540402835291602001916110a1565b820191906000526020600020905b81548152906001019060200180831161108457829003601f168201915b5050505050815250508152602001600582016040518060600160405290816000820180546110ce90611e18565b80601f01602080910402602001604051908101604052809291908181526020018280546110fa90611e18565b80156111475780601f1061111c57610100808354040283529160200191611147565b820191906000526020600020905b81548152906001019060200180831161112a57829003601f168201915b5050505050815260200160018201805461116090611e18565b80601f016020809104026020016040519081016040528092919081815260200182805461118c90611e18565b80156111d95780601f106111ae576101008083540402835291602001916111d9565b820191906000526020600020905b8154815290600101906020018083116111bc57829003601f168201915b505050505081526020016002820180546111f290611e18565b80601f016020809104026020016040519081016040528092919081815260200182805461121e90611e18565b801561126b5780601f106112405761010080835404028352916020019161126b565b820191906000526020600020905b81548152906001019060200180831161124e57829003601f168201915b505050505081525050815250509050806000015181602001518260400151600001518360400151602001518460400151604001518560600151600001518660600151602001518760600151604001519850985098509850985098509850985050919395975091939597565b600381815481106112e657600080fd5b90600052602060002001600091509050805461130190611e18565b80601f016020809104026020016040519081016040528092919081815260200182805461132d90611e18565b801561137a5780601f1061134f5761010080835404028352916020019161137a565b820191906000526020600020905b81548152906001019060200180831161135d57829003601f168201915b505050505081565b6000604051905090565b600080fd5b600080fd5b600080fd5b600080fd5b6000601f19601f8301169050919050565b7f4e487b7100000000000000000000000000000000000000000000000000000000600052604160045260246000fd5b6113e9826113a0565b810181811067ffffffffffffffff82111715611408576114076113b1565b5b80604052505050565b600061141b611382565b905061142782826113e0565b919050565b600067ffffffffffffffff821115611447576114466113b1565b5b611450826113a0565b9050602081019050919050565b82818337600083830152505050565b600061147f61147a8461142c565b611411565b90508281526020810184848401111561149b5761149a61139b565b5b6114a684828561145d565b509392505050565b600082601f8301126114c3576114c2611396565b5b81356114d384826020860161146c565b91505092915050565b600080600080600080600080610100898b0312156114fd576114fc61138c565b5b600089013567ffffffffffffffff81111561151b5761151a611391565b5b6115278b828c016114ae565b985050602089013567ffffffffffffffff81111561154857611547611391565b5b6115548b828c016114ae565b975050604089013567ffffffffffffffff81111561157557611574611391565b5b6115818b828c016114ae565b965050606089013567ffffffffffffffff8111156115a2576115a1611391565b5b6115ae8b828c016114ae565b955050608089013567ffffffffffffffff8111156115cf576115ce611391565b5b6115db8b828c016114ae565b94505060a089013567ffffffffffffffff8111156115fc576115fb611391565b5b6116088b828c016114ae565b93505060c089013567ffffffffffffffff81111561162957611628611391565b5b6116358b828c016114ae565b92505060e089013567ffffffffffffffff81111561165657611655611391565b5b6116628b828c016114ae565b9150509295985092959890939650565b6000819050919050565b61168581611672565b82525050565b60006020820190506116a0600083018461167c565b92915050565b600081519050919050565b600082825260208201905092915050565b6000819050602082019050919050565b600081519050919050565b600082825260208201905092915050565b60005b8381101561170c5780820151818401526020810190506116f1565b60008484015250505050565b6000611723826116d2565b61172d81856116dd565b935061173d8185602086016116ee565b611746816113a0565b840191505092915050565b600061175d8383611718565b905092915050565b6000602082019050919050565b600061177d826116a6565b61178781856116b1565b935083602082028501611799856116c2565b8060005b858110156117d557848403895281516117b68582611751565b94506117c183611765565b925060208a0199505060018101905061179d565b50829750879550505050505092915050565b600060208201905081810360008301526118018184611772565b905092915050565b60006020828403121561181f5761181e61138c565b5b600082013567ffffffffffffffff81111561183d5761183c611391565b5b611849848285016114ae565b91505092915050565b60008115159050919050565b61186781611852565b82525050565b6000602082019050611882600083018461185e565b92915050565b61189181611672565b811461189c57600080fd5b50565b6000813590506118ae81611888565b92915050565b6000602082840312156118ca576118c961138c565b5b60006118d88482850161189f565b91505092915050565b600082825260208201905092915050565b60006118fd826116d2565b61190781856118e1565b93506119178185602086016116ee565b611920816113a0565b840191505092915050565b6000602082019050818103600083015261194581846118f2565b905092915050565b6000606083016000830151848203600086015261196a8282611718565b915050602083015184820360208601526119848282611718565b9150506040830151848203604086015261199e8282611718565b9150508091505092915050565b600060808201905081810360008301526119c581876118f2565b905081810360208301526119d981866118f2565b905081810360408301526119ed818561194d565b90508181036060830152611a01818461194d565b905095945050505050565b6000610100820190508181036000830152611a27818b6118f2565b90508181036020830152611a3b818a6118f2565b90508181036040830152611a4f81896118f2565b90508181036060830152611a6381886118f2565b90508181036080830152611a7781876118f2565b905081810360a0830152611a8b81866118f2565b905081810360c0830152611a9f81856118f2565b905081810360e0830152611ab381846118f2565b90509998505050505050505050565b600081905092915050565b6000611ad8826116d2565b611ae28185611ac2565b9350611af28185602086016116ee565b80840191505092915050565b6000611b0a8284611acd565b915081905092915050565b7f4d6174636820494420616c726561647920657869737473202d205072696d617260008201527f79204b657920636f6e73747261696e742076696f6c6174696f6e000000000000602082015250565b6000611b71603a836118e1565b9150611b7c82611b15565b604082019050919050565b60006020820190508181036000830152611ba081611b64565b9050919050565b7f4d617463682049442063616e6e6f7420626520656d707479202d205072696d6160008201527f7279204b65792063616e6e6f74206265206e756c6c0000000000000000000000602082015250565b6000611c036035836118e1565b9150611c0e82611ba7565b604082019050919050565b60006020820190508181036000830152611c3281611bf6565b9050919050565b7f5573657220494420312063616e6e6f7420626520656d70747900000000000000600082015250565b6000611c6f6019836118e1565b9150611c7a82611c39565b602082019050919050565b60006020820190508181036000830152611c9e81611c62565b9050919050565b7f5573657220494420322063616e6e6f7420626520656d70747900000000000000600082015250565b6000611cdb6019836118e1565b9150611ce682611ca5565b602082019050919050565b60006020820190508181036000830152611d0a81611cce565b9050919050565b7f446973706c6179206e616d6520312063616e6e6f7420626520656d7074790000600082015250565b6000611d47601e836118e1565b9150611d5282611d11565b602082019050919050565b60006020820190508181036000830152611d7681611d3a565b9050919050565b7f446973706c6179206e616d6520322063616e6e6f7420626520656d7074790000600082015250565b6000611db3601e836118e1565b9150611dbe82611d7d565b602082019050919050565b60006020820190508181036000830152611de281611da6565b9050919050565b7f4e487b7100000000000000000000000000000000000000000000000000000000600052602260045260246000fd5b60006002820490506001821680611e3057607f821691505b602082108103611e4357611e42611de9565b5b50919050565b60008190508160005260206000209050919050565b60006020601f8301049050919050565b600082821b905092915050565b600060088302611eab7fffffffffffffffffffffffffffffffffffffffffffffffffffffffffffffffff82611e6e565b611eb58683611e6e565b95508019841693508086168417925050509392505050565b6000819050919050565b6000611ef2611eed611ee884611672565b611ecd565b611672565b9050919050565b6000819050919050565b611f0c83611ed7565b611f20611f1882611ef9565b848454611e7b565b825550505050565b600090565b611f35611f28565b611f40818484611f03565b505050565b5b81811015611f6457611f59600082611f2d565b600181019050611f46565b5050565b601f821115611fa957611f7a81611e49565b611f8384611e5e565b81016020851015611f92578190505b611fa6611f9e85611e5e565b830182611f45565b50505b505050565b600082821c905092915050565b6000611fcc60001984600802611fae565b1980831691505092915050565b6000611fe58383611fbb565b9150826002028217905092915050565b611ffe826116d2565b67ffffffffffffffff811115612017576120166113b1565b5b6120218254611e18565b61202c828285611f68565b600060209050601f83116001811461205f576000841561204d578287015190505b6120578582611fd9565b8655506120bf565b601f19841661206d86611e49565b60005b8281101561209557848901518255600182019150602085019450602081019050612070565b868310156120b257848901516120ae601f891682611fbb565b8355505b6001600288020188555050505b505050505050565b7f4e487b7100000000000000000000000000000000000000000000000000000000600052601160045260246000fd5b600061210182611672565b91507fffffffffffffffffffffffffffffffffffffffffffffffffffffffffffffffff8203612133576121326120c7565b5b600182019050919050565b600060e0820190508181036000830152612158818a6118f2565b9050818103602083015261216c81896118f2565b9050818103604083015261218081886118f2565b9050818103606083015261219481876118f2565b905081810360808301526121a881866118f2565b905081810360a08301526121bc81856118f2565b905081810360c08301526121d081846118f2565b905098975050505050505050565b7f496e646578206f7574206f6620626f756e647300000000000000000000000000600082015250565b60006122146013836118e1565b915061221f826121de565b602082019050919050565b6000602082019050818103600083015261224381612207565b9050919050565b7f4e487b7100000000000000000000000000000000000000000000000000000000600052603260045260246000fd5b7f4d6174636820646f6573206e6f74206578697374202d205072696d617279204b60008201527f6579206e6f7420666f756e640000000000000000000000000000000000000000602082015250565b60006122d5602c836118e1565b91506122e082612279565b604082019050919050565b60006020820190508181036000830152612304816122c8565b905091905056fea2646970667358221220c3d81eefa650b0efdfb8646c678c251eefd0ed725df84ba79d2db7c70820205564736f6c63430008140033",
  "linkReferences": {},
  "deployedLinkReferences": {}
}