{
  "_format": "hh-sol-artifact-1",
  "contractName": "MyContract",
  "sourceName": "contracts/MyContract.sol",
  "abi": [
    {
      "inputs": [],
      "stateMutability": "nonpayable",
      "type": "constructor"
    },
    {
      "anonymous": false,
      "inputs": [
        {
          "indexed": true,
          "internalType": "string",
          "name": "matchId",
          "type": "string"
        },
        {
          "indexed": false,
          "internalType": "string",
          "name": "matchTime",
          "type": "string"
        },
        {
          "indexed": false,
          "internalType": "string",
          "name": "userId1",
          "type": "string"
        },
        {
          "indexed": false,
          "internalType": "string",
          "name": "displayName1",
          "type": "string"
        },
        {
          "indexed": false,
          "internalType": "string",
          "name": "score1",
          "type": "string"
        },
        {
          "indexed": false,
          "internalType": "string",
          "name": "userId2",
          "type": "string"
        },
        {
          "indexed": false,
          "internalType": "string",
          "name": "displayName2",
          "type": "string"
        },
        {
          "indexed": false,
          "internalType": "string",
          "name": "score2",
          "type": "string"
        }
      ],
      "name": "MatchResultStored",
      "type": "event"
    },
    {
      "inputs": [
        {
          "internalType": "string",
          "name": "_matchId",
          "type": "string"
        }
      ],
      "name": "getMatchResult",
      "outputs": [
        {
          "internalType": "string",
          "name": "matchId",
          "type": "string"
        },
        {
          "internalType": "string",
          "name": "matchTime",
          "type": "string"
        },
        {
          "internalType": "string",
          "name": "userId1",
          "type": "string"
        },
        {
          "internalType": "string",
          "name": "displayName1",
          "type": "string"
        },
        {
          "internalType": "string",
          "name": "score1",
          "type": "string"
        },
        {
          "internalType": "string",
          "name": "userId2",
          "type": "string"
        },
        {
          "internalType": "string",
          "name": "displayName2",
          "type": "string"
        },
        {
          "internalType": "string",
          "name": "score2",
          "type": "string"
        }
      ],
      "stateMutability": "view",
      "type": "function"
    },
    {
      "inputs": [
        {
          "internalType": "string",
          "name": "",
          "type": "string"
        }
      ],
      "name": "matchExists",
      "outputs": [
        {
          "internalType": "bool",
          "name": "",
          "type": "bool"
        }
      ],
      "stateMutability": "view",
      "type": "function"
    },
    {
      "inputs": [
        {
          "internalType": "string",
          "name": "",
          "type": "string"
        }
      ],
      "name": "matchResults",
      "outputs": [
        {
          "internalType": "string",
          "name": "matchId",
          "type": "string"
        },
        {
          "internalType": "string",
          "name": "matchTime",
          "type": "string"
        },
        {
          "components": [
            {
              "internalType": "string",
              "name": "userId",
              "type": "string"
            },
            {
              "internalType": "string",
              "name": "displayName",
              "type": "string"
            },
            {
              "internalType": "string",
              "name": "score",
              "type": "string"
            }
          ],
          "internalType": "struct MyContract.Player",
          "name": "player1",
          "type": "tuple"
        },
        {
          "components": [
            {
              "internalType": "string",
              "name": "userId",
              "type": "string"
            },
            {
              "internalType": "string",
              "name": "displayName",
              "type": "string"
            },
            {
              "internalType": "string",
              "name": "score",
              "type": "string"
            }
          ],
          "internalType": "struct MyContract.Player",
          "name": "player2",
          "type": "tuple"
        }
      ],
      "stateMutability": "view",
      "type": "function"
    },
    {
      "inputs": [
        {
          "internalType": "string",
          "name": "_matchId",
          "type": "string"
        },
        {
          "internalType": "string",
          "name": "_matchTime",
          "type": "string"
        },
        {
          "internalType": "string",
          "name": "_userId1",
          "type": "string"
        },
        {
          "internalType": "string",
          "name": "_displayName1",
          "type": "string"
        },
        {
          "internalType": "string",
          "name": "_score1",
          "type": "string"
        },
        {
          "internalType": "string",
          "name": "_userId2",
          "type": "string"
        },
        {
          "internalType": "string",
          "name": "_displayName2",
          "type": "string"
        },
        {
          "internalType": "string",
          "name": "_score2",
          "type": "string"
        }
      ],
      "name": "storeMatchResult",
      "outputs": [],
      "stateMutability": "nonpayable",
      "type": "function"
    },
    {
      "inputs": [],
      "name": "totalMatches",
      "outputs": [
        {
          "internalType": "uint256",
          "name": "",
          "type": "uint256"
        }
      ],
      "stateMutability": "view",
      "type": "function"
    }
  ],
  "bytecode": "0x608060405234801561001057600080fd5b506000600281905550611d05806100286000396000f3fe608060405234801561001057600080fd5b50600436106100575760003560e01c80632a0f116c1461005c5780632a5b14511461007857806374eaf84714610096578063dc46b73d146100c6578063f8bec5dc146100f9575b600080fd5b6100766004803603810190610071919061110c565b610130565b005b6100806104e9565b60405161008d91906112bb565b60405180910390f35b6100b060048036038101906100ab91906112d6565b6104ef565b6040516100bd919061133a565b60405180910390f35b6100e060048036038101906100db91906112d6565b610525565b6040516100f0949392919061147c565b60405180910390f35b610113600480360381019061010e91906112d6565b6109fb565b6040516101279897969594939291906114dd565b60405180910390f35b60018860405161014091906115cf565b908152602001604051809103902060009054906101000a900460ff161561019c576040517f08c379a000000000000000000000000000000000000000000000000000000000815260040161019390611632565b60405180910390fd5b60008851116101e0576040517f08c379a00000000000000000000000000000000000000000000000000000000081526004016101d79061169e565b60405180910390fd5b6000865111610224576040517f08c379a000000000000000000000000000000000000000000000000000000000815260040161021b9061170a565b60405180910390fd5b6000835111610268576040517f08c379a000000000000000000000000000000000000000000000000000000000815260040161025f90611776565b60405180910390fd5b60008551116102ac576040517f08c379a00000000000000000000000000000000000000000000000000000000081526004016102a3906117e2565b60405180910390fd5b60008251116102f0576040517f08c379a00000000000000000000000000000000000000000000000000000000081526004016102e79061184e565b60405180910390fd5b600060405180606001604052808881526020018781526020018681525090506000604051806060016040528086815260200185815260200184815250905060405180608001604052808b81526020018a81526020018381526020018281525060008b60405161035f91906115cf565b908152602001604051809103902060008201518160000190816103829190611a7a565b5060208201518160010190816103989190611a7a565b5060408201518160020160008201518160000190816103b79190611a7a565b5060208201518160010190816103cd9190611a7a565b5060408201518160020190816103e39190611a7a565b50505060608201518160050160008201518160000190816104049190611a7a565b50602082015181600101908161041a9190611a7a565b5060408201518160020190816104309190611a7a565b5050509050506001808b60405161044791906115cf565b908152602001604051809103902060006101000a81548160ff0219169083151502179055506002600081548092919061047f90611b7b565b91905055508960405161049291906115cf565b60405180910390207f5d2fceae945df8db929c0fc708039c9217bd986ae74123d3c99d2c94f58351448a8a8a8a8a8a8a6040516104d59796959493929190611bc3565b60405180910390a250505050505050505050565b60025481565b6001818051602081018201805184825260208301602085012081835280955050505050506000915054906101000a900460ff1681565b60008180516020810182018051848252602083016020850120818352809550505050505060009150905080600001805461055e9061189d565b80601f016020809104026020016040519081016040528092919081815260200182805461058a9061189d565b80156105d75780601f106105ac576101008083540402835291602001916105d7565b820191906000526020600020905b8154815290600101906020018083116105ba57829003601f168201915b5050505050908060010180546105ec9061189d565b80601f01602080910402602001604051908101604052809291908181526020018280546106189061189d565b80156106655780601f1061063a57610100808354040283529160200191610665565b820191906000526020600020905b81548152906001019060200180831161064857829003601f168201915b5050505050908060020160405180606001604052908160008201805461068a9061189d565b80601f01602080910402602001604051908101604052809291908181526020018280546106b69061189d565b80156107035780601f106106d857610100808354040283529160200191610703565b820191906000526020600020905b8154815290600101906020018083116106e657829003601f168201915b5050505050815260200160018201805461071c9061189d565b80601f01602080910402602001604051908101604052809291908181526020018280546107489061189d565b80156107955780601f1061076a57610100808354040283529160200191610795565b820191906000526020600020905b81548152906001019060200180831161077857829003601f168201915b505050505081526020016002820180546107ae9061189d565b80601f01602080910402602001604051908101604052809291908181526020018280546107da9061189d565b80156108275780601f106107fc57610100808354040283529160200191610827565b820191906000526020600020905b81548152906001019060200180831161080a57829003601f168201915b50505050508152505090806005016040518060600160405290816000820180546108509061189d565b80601f016020809104026020016040519081016040528092919081815260200182805461087c9061189d565b80156108c95780601f1061089e576101008083540402835291602001916108c9565b820191906000526020600020905b8154815290600101906020018083116108ac57829003601f168201915b505050505081526020016001820180546108e29061189d565b80601f016020809104026020016040519081016040528092919081815260200182805461090e9061189d565b801561095b5780601f106109305761010080835404028352916020019161095b565b820191906000526020600020905b81548152906001019060200180831161093e57829003601f168201915b505050505081526020016002820180546109749061189d565b80601f01602080910402602001604051908101604052809291908181526020018280546109a09061189d565b80156109ed5780601f106109c2576101008083540402835291602001916109ed565b820191906000526020600020905b8154815290600101906020018083116109d057829003601f168201915b505050505081525050905084565b606080606080606080606080600189604051610a1791906115cf565b908152602001604051809103902060009054906101000a900460ff16610a72576040517f08c379a0000000000000000000000000000000000000000000000000000000008152600401610a6990611caf565b60405180910390fd5b6000808a604051610a8391906115cf565b9081526020016040518091039020604051806080016040529081600082018054610aac9061189d565b80601f0160208091040260200160405190810160405280929190818152602001828054610ad89061189d565b8015610b255780601f10610afa57610100808354040283529160200191610b25565b820191906000526020600020905b815481529060010190602001808311610b0857829003601f168201915b50505050508152602001600182018054610b3e9061189d565b80601f0160208091040260200160405190810160405280929190818152602001828054610b6a9061189d565b8015610bb75780601f10610b8c57610100808354040283529160200191610bb7565b820191906000526020600020905b815481529060010190602001808311610b9a57829003601f168201915b5050505050815260200160028201604051806060016040529081600082018054610be09061189d565b80601f0160208091040260200160405190810160405280929190818152602001828054610c0c9061189d565b8015610c595780601f10610c2e57610100808354040283529160200191610c59565b820191906000526020600020905b815481529060010190602001808311610c3c57829003601f168201915b50505050508152602001600182018054610c729061189d565b80601f0160208091040260200160405190810160405280929190818152602001828054610c9e9061189d565b8015610ceb5780601f10610cc057610100808354040283529160200191610ceb565b820191906000526020600020905b815481529060010190602001808311610cce57829003601f168201915b50505050508152602001600282018054610d049061189d565b80601f0160208091040260200160405190810160405280929190818152602001828054610d309061189d565b8015610d7d5780601f10610d5257610100808354040283529160200191610d7d565b820191906000526020600020905b815481529060010190602001808311610d6057829003601f168201915b505050505081525050815260200160058201604051806060016040529081600082018054610daa9061189d565b80601f0160208091040260200160405190810160405280929190818152602001828054610dd69061189d565b8015610e235780601f10610df857610100808354040283529160200191610e23565b820191906000526020600020905b815481529060010190602001808311610e0657829003601f168201915b50505050508152602001600182018054610e3c9061189d565b80601f0160208091040260200160405190810160405280929190818152602001828054610e689061189d565b8015610eb55780601f10610e8a57610100808354040283529160200191610eb5565b820191906000526020600020905b815481529060010190602001808311610e9857829003601f168201915b50505050508152602001600282018054610ece9061189d565b80601f0160208091040260200160405190810160405280929190818152602001828054610efa9061189d565b8015610f475780601f10610f1c57610100808354040283529160200191610f47565b820191906000526020600020905b815481529060010190602001808311610f2a57829003601f168201915b505050505081525050815250509050806000015181602001518260400151600001518360400151602001518460400151604001518560600151600001518660600151602001518760600151604001519850985098509850985098509850985050919395975091939597565b6000604051905090565b600080fd5b600080fd5b600080fd5b600080fd5b6000601f19601f8301169050919050565b7f4e487b7100000000000000000000000000000000000000000000000000000000600052604160045260246000fd5b61101982610fd0565b810181811067ffffffffffffffff8211171561103857611037610fe1565b5b80604052505050565b600061104b610fb2565b90506110578282611010565b919050565b600067ffffffffffffffff82111561107757611076610fe1565b5b61108082610fd0565b9050602081019050919050565b82818337600083830152505050565b60006110af6110aa8461105c565b611041565b9050828152602081018484840111156110cb576110ca610fcb565b5b6110d684828561108d565b509392505050565b600082601f8301126110f3576110f2610fc6565b5b813561110384826020860161109c565b91505092915050565b600080600080600080600080610100898b03121561112d5761112c610fbc565b5b600089013567ffffffffffffffff81111561114b5761114a610fc1565b5b6111578b828c016110de565b985050602089013567ffffffffffffffff81111561117857611177610fc1565b5b6111848b828c016110de565b975050604089013567ffffffffffffffff8111156111a5576111a4610fc1565b5b6111b18b828c016110de565b965050606089013567ffffffffffffffff8111156111d2576111d1610fc1565b5b6111de8b828c016110de565b955050608089013567ffffffffffffffff8111156111ff576111fe610fc1565b5b61120b8b828c016110de565b94505060a089013567ffffffffffffffff81111561122c5761122b610fc1565b5b6112388b828c016110de565b93505060c089013567ffffffffffffffff81111561125957611258610fc1565b5b6112658b828c016110de565b92505060e089013567ffffffffffffffff81111561128657611285610fc1565b5b6112928b828c016110de565b9150509295985092959890939650565b6000819050919050565b6112b5816112a2565b82525050565b60006020820190506112d060008301846112ac565b92915050565b6000602082840312156112ec576112eb610fbc565b5b600082013567ffffffffffffffff81111561130a57611309610fc1565b5b611316848285016110de565b91505092915050565b60008115159050919050565b6113348161131f565b82525050565b600060208201905061134f600083018461132b565b92915050565b600081519050919050565b600082825260208201905092915050565b60005b8381101561138f578082015181840152602081019050611374565b60008484015250505050565b60006113a682611355565b6113b08185611360565b93506113c0818560208601611371565b6113c981610fd0565b840191505092915050565b600082825260208201905092915050565b60006113f082611355565b6113fa81856113d4565b935061140a818560208601611371565b61141381610fd0565b840191505092915050565b6000606083016000830151848203600086015261143b82826113e5565b9150506020830151848203602086015261145582826113e5565b9150506040830151848203604086015261146f82826113e5565b9150508091505092915050565b60006080820190508181036000830152611496818761139b565b905081810360208301526114aa818661139b565b905081810360408301526114be818561141e565b905081810360608301526114d2818461141e565b905095945050505050565b60006101008201905081810360008301526114f8818b61139b565b9050818103602083015261150c818a61139b565b90508181036040830152611520818961139b565b90508181036060830152611534818861139b565b90508181036080830152611548818761139b565b905081810360a083015261155c818661139b565b905081810360c0830152611570818561139b565b905081810360e0830152611584818461139b565b90509998505050505050505050565b600081905092915050565b60006115a982611355565b6115b38185611593565b93506115c3818560208601611371565b80840191505092915050565b60006115db828461159e565b915081905092915050565b7f4d6174636820494420616c726561647920657869737473000000000000000000600082015250565b600061161c601783611360565b9150611627826115e6565b602082019050919050565b6000602082019050818103600083015261164b8161160f565b9050919050565b7f4d617463682049442063616e6e6f7420626520656d7074790000000000000000600082015250565b6000611688601883611360565b915061169382611652565b602082019050919050565b600060208201905081810360008301526116b78161167b565b9050919050565b7f5573657220494420312063616e6e6f7420626520656d70747900000000000000600082015250565b60006116f4601983611360565b91506116ff826116be565b602082019050919050565b60006020820190508181036000830152611723816116e7565b9050919050565b7f5573657220494420322063616e6e6f7420626520656d70747900000000000000600082015250565b6000611760601983611360565b915061176b8261172a565b602082019050919050565b6000602082019050818103600083015261178f81611753565b9050919050565b7f446973706c6179206e616d6520312063616e6e6f7420626520656d7074790000600082015250565b60006117cc601e83611360565b91506117d782611796565b602082019050919050565b600060208201905081810360008301526117fb816117bf565b9050919050565b7f446973706c6179206e616d6520322063616e6e6f7420626520656d7074790000600082015250565b6000611838601e83611360565b915061184382611802565b602082019050919050565b600060208201905081810360008301526118678161182b565b9050919050565b7f4e487b7100000000000000000000000000000000000000000000000000000000600052602260045260246000fd5b600060028204905060018216806118b557607f821691505b6020821081036118c8576118c761186e565b5b50919050565b60008190508160005260206000209050919050565b60006020601f8301049050919050565b600082821b905092915050565b6000600883026119307fffffffffffffffffffffffffffffffffffffffffffffffffffffffffffffffff826118f3565b61193a86836118f3565b95508019841693508086168417925050509392505050565b6000819050919050565b600061197761197261196d846112a2565b611952565b6112a2565b9050919050565b6000819050919050565b6119918361195c565b6119a561199d8261197e565b848454611900565b825550505050565b600090565b6119ba6119ad565b6119c5818484611988565b505050565b5b818110156119e9576119de6000826119b2565b6001810190506119cb565b5050565b601f821115611a2e576119ff816118ce565b611a08846118e3565b81016020851015611a17578190505b611a2b611a23856118e3565b8301826119ca565b50505b505050565b600082821c905092915050565b6000611a5160001984600802611a33565b1980831691505092915050565b6000611a6a8383611a40565b9150826002028217905092915050565b611a8382611355565b67ffffffffffffffff811115611a9c57611a9b610fe1565b5b611aa6825461189d565b611ab18282856119ed565b600060209050601f831160018114611ae45760008415611ad2578287015190505b611adc8582611a5e565b865550611b44565b601f198416611af2866118ce565b60005b82811015611b1a57848901518255600182019150602085019450602081019050611af5565b86831015611b375784890151611b33601f891682611a40565b8355505b6001600288020188555050505b505050505050565b7f4e487b7100000000000000000000000000000000000000000000000000000000600052601160045260246000fd5b6000611b86826112a2565b91507fffffffffffffffffffffffffffffffffffffffffffffffffffffffffffffffff8203611bb857611bb7611b4c565b5b600182019050919050565b600060e0820190508181036000830152611bdd818a61139b565b90508181036020830152611bf1818961139b565b90508181036040830152611c05818861139b565b90508181036060830152611c19818761139b565b90508181036080830152611c2d818661139b565b905081810360a0830152611c41818561139b565b905081810360c0830152611c55818461139b565b905098975050505050505050565b7f4d6174636820646f6573206e6f74206578697374000000000000000000000000600082015250565b6000611c99601483611360565b9150611ca482611c63565b602082019050919050565b60006020820190508181036000830152611cc881611c8c565b905091905056fea2646970667358221220d0aedf95842471087b2384f590a149a00cc7802e49990af8b572172c781132d164736f6c63430008140033",
  "linkReferences": {},
  "deployedLinkReferences": {}
}